{
  "contractName": "HokageToken",
  "abi": [
    {
      "constant": true,
      "inputs": [],
      "name": "name",
      "outputs": [
        {
          "name": "",
          "type": "string"
        }
      ],
      "payable": false,
      "stateMutability": "view",
      "type": "function"
    },
    {
      "constant": true,
      "inputs": [],
      "name": "totalSupply",
      "outputs": [
        {
          "name": "",
          "type": "uint256"
        }
      ],
      "payable": false,
      "stateMutability": "view",
      "type": "function"
    },
    {
      "constant": true,
      "inputs": [],
      "name": "standered",
      "outputs": [
        {
          "name": "",
          "type": "string"
        }
      ],
      "payable": false,
      "stateMutability": "view",
      "type": "function"
    },
    {
      "constant": true,
      "inputs": [
        {
          "name": "",
          "type": "address"
        }
      ],
      "name": "balanceOf",
      "outputs": [
        {
          "name": "",
          "type": "uint256"
        }
      ],
      "payable": false,
      "stateMutability": "view",
      "type": "function"
    },
    {
      "constant": true,
      "inputs": [],
      "name": "decimal",
      "outputs": [
        {
          "name": "",
          "type": "uint8"
        }
      ],
      "payable": false,
      "stateMutability": "view",
      "type": "function"
    },
    {
      "constant": true,
      "inputs": [],
      "name": "symbol",
      "outputs": [
        {
          "name": "",
          "type": "string"
        }
      ],
      "payable": false,
      "stateMutability": "view",
      "type": "function"
    },
    {
      "inputs": [
        {
          "name": "_initialSupply",
          "type": "uint256"
        }
      ],
      "payable": false,
      "stateMutability": "nonpayable",
      "type": "constructor"
    },
    {
      "anonymous": false,
      "inputs": [
        {
          "indexed": true,
          "name": "_from",
          "type": "address"
        },
        {
          "indexed": true,
          "name": "_to",
          "type": "address"
        },
        {
          "indexed": false,
          "name": "_value",
          "type": "uint256"
        }
      ],
      "name": "Transfer",
      "type": "event"
    },
    {
      "anonymous": false,
      "inputs": [
        {
          "indexed": true,
          "name": "_owner",
          "type": "address"
        },
        {
          "indexed": true,
          "name": "_spender",
          "type": "address"
        },
        {
          "indexed": false,
          "name": "_value",
          "type": "uint256"
        }
      ],
      "name": "Approval",
      "type": "event"
    },
    {
      "constant": false,
      "inputs": [
        {
          "name": "_to",
          "type": "address"
        },
        {
          "name": "_value",
          "type": "uint256"
        }
      ],
      "name": "transfer",
      "outputs": [
        {
          "name": "success",
          "type": "bool"
        }
      ],
      "payable": false,
      "stateMutability": "nonpayable",
      "type": "function"
    },
    {
      "constant": false,
      "inputs": [
        {
          "name": "_from",
          "type": "address"
        },
        {
          "name": "_to",
          "type": "address"
        },
        {
          "name": "_value",
          "type": "uint256"
        }
      ],
      "name": "transferFrom",
      "outputs": [
        {
          "name": "success",
          "type": "bool"
        }
      ],
      "payable": false,
      "stateMutability": "nonpayable",
      "type": "function"
    },
    {
      "constant": false,
      "inputs": [
        {
          "name": "_spender",
          "type": "address"
        },
        {
          "name": "_value",
          "type": "uint256"
        }
      ],
      "name": "approve",
      "outputs": [
        {
          "name": "success",
          "type": "bool"
        }
      ],
      "payable": false,
      "stateMutability": "nonpayable",
      "type": "function"
    },
    {
      "constant": true,
      "inputs": [
        {
          "name": "_owner",
          "type": "address"
        },
        {
          "name": "_spender",
          "type": "address"
        }
      ],
      "name": "allowance",
      "outputs": [
        {
          "name": "remaining",
          "type": "uint256"
        }
      ],
      "payable": false,
      "stateMutability": "view",
      "type": "function"
    }
  ],
  "bytecode": "0x608060405234801561001057600080fd5b50604051602080610c388339810180604052602081101561003057600080fd5b81019080805190602001909291905050508060008190555080600160003373ffffffffffffffffffffffffffffffffffffffff1673ffffffffffffffffffffffffffffffffffffffff1681526020019081526020016000208190555050610b9c8061009c6000396000f3fe608060405234801561001057600080fd5b506004361061009e5760003560e01c806370a082311161006657806370a08231146102b357806376809ce31461030b57806395d89b411461032f578063a9059cbb146103b2578063dd62ed3e146104185761009e565b806306fdde03146100a3578063095ea7b31461012657806318160ddd1461018c5780631859ae67146101aa57806323b872dd1461022d575b600080fd5b6100ab610490565b6040518080602001828103825283818151815260200191508051906020019080838360005b838110156100eb5780820151818401526020810190506100d0565b50505050905090810190601f1680156101185780820380516001836020036101000a031916815260200191505b509250505060405180910390f35b6101726004803603604081101561013c57600080fd5b81019080803573ffffffffffffffffffffffffffffffffffffffff169060200190929190803590602001909291905050506104c9565b604051808215151515815260200191505060405180910390f35b6101946105bb565b6040518082815260200191505060405180910390f35b6101b26105c1565b6040518080602001828103825283818151815260200191508051906020019080838360005b838110156101f25780820151818401526020810190506101d7565b50505050905090810190601f16801561021f5780820380516001836020036101000a031916815260200191505b509250505060405180910390f35b6102996004803603606081101561024357600080fd5b81019080803573ffffffffffffffffffffffffffffffffffffffff169060200190929190803573ffffffffffffffffffffffffffffffffffffffff169060200190929190803590602001909291905050506105fa565b604051808215151515815260200191505060405180910390f35b6102f5600480360360208110156102c957600080fd5b81019080803573ffffffffffffffffffffffffffffffffffffffff1690602001909291905050506108a7565b6040518082815260200191505060405180910390f35b6103136108bf565b604051808260ff1660ff16815260200191505060405180910390f35b6103376108c4565b6040518080602001828103825283818151815260200191508051906020019080838360005b8381101561037757808201518184015260208101905061035c565b50505050905090810190601f1680156103a45780820380516001836020036101000a031916815260200191505b509250505060405180910390f35b6103fe600480360360408110156103c857600080fd5b81019080803573ffffffffffffffffffffffffffffffffffffffff169060200190929190803590602001909291905050506108fd565b604051808215151515815260200191505060405180910390f35b61047a6004803603604081101561042e57600080fd5b81019080803573ffffffffffffffffffffffffffffffffffffffff169060200190929190803573ffffffffffffffffffffffffffffffffffffffff169060200190929190505050610abd565b6040518082815260200191505060405180910390f35b6040518060400160405280600b81526020017f486f6b616765546f6b656e00000000000000000000000000000000000000000081525081565b600081600260003373ffffffffffffffffffffffffffffffffffffffff1673ffffffffffffffffffffffffffffffffffffffff16815260200190815260200160002060008573ffffffffffffffffffffffffffffffffffffffff1673ffffffffffffffffffffffffffffffffffffffff168152602001908152602001600020819055508273ffffffffffffffffffffffffffffffffffffffff163373ffffffffffffffffffffffffffffffffffffffff167f8c5be1e5ebec7d5bd14f71427d1e84f3dd0314c0f7b2291e5b200ac8c7c3b925846040518082815260200191505060405180910390a36001905092915050565b60005481565b6040518060400160405280601081526020017f486f6b616765546f6b656e2076312e300000000000000000000000000000000081525081565b6000600160008573ffffffffffffffffffffffffffffffffffffffff1673ffffffffffffffffffffffffffffffffffffffff16815260200190815260200160002054821115610694576040517f08c379a000000000000000000000000000000000000000000000000000000000815260040180806020018281038252602c815260200180610b45602c913960400191505060405180910390fd5b61069e8433610abd565b821115610713576040517f08c379a00000000000000000000000000000000000000000000000000000000081526004018080602001828103825260168152602001807f536f6d65206572726f7220686173206f6363757265640000000000000000000081525060200191505060405180910390fd5b81600160008573ffffffffffffffffffffffffffffffffffffffff1673ffffffffffffffffffffffffffffffffffffffff1681526020019081526020016000206000828254019250508190555081600160008673ffffffffffffffffffffffffffffffffffffffff1673ffffffffffffffffffffffffffffffffffffffff1681526020019081526020016000206000828254039250508190555081600260008673ffffffffffffffffffffffffffffffffffffffff1673ffffffffffffffffffffffffffffffffffffffff16815260200190815260200160002060003373ffffffffffffffffffffffffffffffffffffffff1673ffffffffffffffffffffffffffffffffffffffff168152602001908152602001600020600082825403925050819055508273ffffffffffffffffffffffffffffffffffffffff163373ffffffffffffffffffffffffffffffffffffffff167fddf252ad1be2c89b69c2b068fc378daa952ba7f163c4a11628f55a4df523b3ef846040518082815260200191505060405180910390a3600190509392505050565b60016020528060005260406000206000915090505481565b601281565b6040518060400160405280600681526020017f486f6b616765000000000000000000000000000000000000000000000000000081525081565b600081600160003373ffffffffffffffffffffffffffffffffffffffff1673ffffffffffffffffffffffffffffffffffffffff1681526020019081526020016000205410156109b4576040517f08c379a000000000000000000000000000000000000000000000000000000000815260040180806020018281038252601a8152602001807f596f7520646f6e74206861766520656e6f676820746f6b656e7300000000000081525060200191505060405180910390fd5b81600160003373ffffffffffffffffffffffffffffffffffffffff1673ffffffffffffffffffffffffffffffffffffffff1681526020019081526020016000206000828254039250508190555081600160008573ffffffffffffffffffffffffffffffffffffffff1673ffffffffffffffffffffffffffffffffffffffff168152602001908152602001600020600082825401925050819055508273ffffffffffffffffffffffffffffffffffffffff163373ffffffffffffffffffffffffffffffffffffffff167fddf252ad1be2c89b69c2b068fc378daa952ba7f163c4a11628f55a4df523b3ef846040518082815260200191505060405180910390a36001905092915050565b6000600260008473ffffffffffffffffffffffffffffffffffffffff1673ffffffffffffffffffffffffffffffffffffffff16815260200190815260200160002060008373ffffffffffffffffffffffffffffffffffffffff1673ffffffffffffffffffffffffffffffffffffffff1681526020019081526020016000205490509291505056fe43616e74207472616e73666572206d6f7265207468616e207468652072657175697265642062616c616e6365a165627a7a72305820be62da0fcbc118d2550c97b392b20beb0856606b4ea3f63f7c294eeb3b17fab70029",
  "source": "pragma solidity ^0.5.8;\n\ncontract HokageToken{\n    //name\n    string public constant name = 'HokageToken';\n    //symbol\n    string public constant symbol = 'Hokage';\n    //decimal\n    uint8 public constant decimal = 18;\n    //standered < not erc20 token\n    string public constant standered = 'HokageToken v1.0';\n    //total supply of the coin\n    uint256 public totalSupply;\n    //balance of mapping\n    mapping(address => uint256) public balanceOf;\n    //allowance\n    mapping(address => mapping(address => uint256)) private allowed;\n\n\n    constructor (uint256 _initialSupply) public{\n        totalSupply = _initialSupply;\n        //allocating the balance to admin account\n        balanceOf[msg.sender] = _initialSupply;\n    }\n\n    //transfer function\n    function transfer(address _to, uint256 _value) public returns (bool success){\n\n        //Exection if not sufficauebt balance\n        require(balanceOf[msg.sender] >= _value,'You dont have enogh tokens');\n\n        //transfer\n        balanceOf[msg.sender] -= _value;\n        balanceOf[_to] += _value;\n\n        //Transfer Event\n        emit Transfer(msg.sender,_to,_value);\n\n        //Return boolean\n        return true;\n    }\n\n    /*\n    * @param _value : number of token to be transfered\n    * @param _to : to whomsoever it has to be transfered\n    * @param _from : from whomsoever it is transfered\n    * @return : boolean : if the transaction is successfully performed\n    **> usually it is used in order to do withdraw workflow allowing contract to transfer token on your behalf\n    **> Also we need to keep in mind this function SHOULD throw exception unless _from account has delibrately authorized the sender of the message via some mechanism\n    **> Note Transfers of 0 values MUST be treated as normal transfers and fire the Transfer event.\n    */\n    //transfer from\n    function transferFrom(address _from, address _to, uint256 _value) public returns (bool success){\n        //require _from has enough token\n        require(_value <= balanceOf[_from],'Cant transfer more than the required balance');\n        require(_value <= allowance(_from, msg.sender), 'Some error has occured');\n        \n        //change the balance\n        balanceOf[_to] += _value;\n        balanceOf[_from] -= _value;\n\n        //update the allowance\n        allowed[_from][msg.sender] -= _value;\n\n        //call transfer event\n        emit Transfer(msg.sender,_to,_value);\n\n        //return boolean\n        return true;\n    }\n\n    /*\n    * @param _spender : to withdraw from account multiple time\n    * @param _value : to withdraw the amount from the owner of the current account\n    * @return : boolean : if the transaction is successfully performed\n    **> This can lead to attact to the current account holder\n    **> So, basically it is asking that account holder of A will approve account holder of B in order to spend money on his behalf\n    **> Also client shold make sure that he create user interface in such a way that they are set to 0 before setting it to another value for the same spender; we will not be doing it in contract to allow backword compitability\n    */\n    //approve\n    function approve(address _spender, uint256 _value) public returns (bool success){\n        //allowance\n        allowed[msg.sender][_spender] = _value;\n\n        //approve event\n        emit Approval(msg.sender,_spender,_value);\n\n        return true;\n    }\n\n    //GETTERS\n\n    /*\n    * @param _owner : owner from whose account coin/token is withdrawn\n    * @param _spender : the one who spends the token on behalf of the owner\n    * @return : unint256 : number of token being still allowed to spend by spender\n    */\n    //allowance\n    function allowance(address _owner, address _spender) public view returns (uint256 remaining){\n        return allowed[_owner][_spender];\n    }\n\n\n    //EVENTS\n    event Transfer(\n        address indexed _from,\n        address indexed _to,\n        uint256 _value\n    );\n\n    event Approval(\n        address indexed _owner,\n        address indexed _spender,\n        uint256 _value\n    );\n\n\n}",
  "sourcePath": "/home/xgod666/Documents/ethereum/cryptoCoin/contracts/HokageToken.sol",
  "compiler": {
    "name": "solc",
    "version": "0.5.8+commit.23d335f2.Emscripten.clang"
  },
  "schemaVersion": "3.0.11",
  "updatedAt": "2019-06-26T04:59:42.772Z",
  "devdoc": {
    "methods": {}
  },
  "userdoc": {
    "methods": {}
  }
}