{
  "contractName": "HokageToken",
  "abi": [
    {
      "constant": true,
      "inputs": [],
      "name": "totalSupply",
      "outputs": [
        {
          "name": "",
          "type": "uint256"
        }
      ],
      "payable": false,
      "stateMutability": "view",
      "type": "function"
    },
    {
      "inputs": [],
      "payable": false,
      "stateMutability": "nonpayable",
      "type": "constructor"
    }
  ],
  "bytecode": "0x6080604052348015600f57600080fd5b50620f4240600081905550607b806100286000396000f3fe6080604052348015600f57600080fd5b506004361060285760003560e01c806318160ddd14602d575b600080fd5b60336049565b6040518082815260200191505060405180910390f35b6000548156fea165627a7a7230582076086e7651f9b3011f476faf574a2a6f11d18c748446bcfaee62925e9531b05a0029",
  "source": "pragma solidity ^0.5.8;\n\ncontract HokageToken{\n\n    uint256 public totalSupply;\n\n    constructor() public{\n        totalSupply = 1000000;\n    }\n\n}",
  "sourcePath": "/home/xgod666/Documents/ethereum/cryptoCoin/contracts/HokageToken.sol",
  "compiler": {
    "name": "solc",
    "version": "0.5.8+commit.23d335f2.Emscripten.clang"
  },
  "schemaVersion": "3.0.11",
  "updatedAt": "2019-06-25T04:20:30.321Z",
  "devdoc": {
    "methods": {}
  },
  "userdoc": {
    "methods": {}
  }
}