{
  "contractName": "HokageToken",
  "abi": [
    {
      "constant": true,
      "inputs": [],
      "name": "name",
      "outputs": [
        {
          "name": "",
          "type": "string"
        }
      ],
      "payable": false,
      "stateMutability": "view",
      "type": "function"
    },
    {
      "constant": true,
      "inputs": [],
      "name": "totalSupply",
      "outputs": [
        {
          "name": "",
          "type": "uint256"
        }
      ],
      "payable": false,
      "stateMutability": "view",
      "type": "function"
    },
    {
      "constant": true,
      "inputs": [],
      "name": "standered",
      "outputs": [
        {
          "name": "",
          "type": "string"
        }
      ],
      "payable": false,
      "stateMutability": "view",
      "type": "function"
    },
    {
      "constant": true,
      "inputs": [
        {
          "name": "",
          "type": "address"
        }
      ],
      "name": "balanceOf",
      "outputs": [
        {
          "name": "",
          "type": "uint256"
        }
      ],
      "payable": false,
      "stateMutability": "view",
      "type": "function"
    },
    {
      "constant": true,
      "inputs": [],
      "name": "decimal",
      "outputs": [
        {
          "name": "",
          "type": "uint8"
        }
      ],
      "payable": false,
      "stateMutability": "view",
      "type": "function"
    },
    {
      "constant": true,
      "inputs": [],
      "name": "symbol",
      "outputs": [
        {
          "name": "",
          "type": "string"
        }
      ],
      "payable": false,
      "stateMutability": "view",
      "type": "function"
    },
    {
      "inputs": [
        {
          "name": "_initialSupply",
          "type": "uint256"
        }
      ],
      "payable": false,
      "stateMutability": "nonpayable",
      "type": "constructor"
    },
    {
      "anonymous": false,
      "inputs": [
        {
          "indexed": true,
          "name": "_from",
          "type": "address"
        },
        {
          "indexed": true,
          "name": "_to",
          "type": "address"
        },
        {
          "indexed": false,
          "name": "_value",
          "type": "uint256"
        }
      ],
      "name": "Transfer",
      "type": "event"
    },
    {
      "constant": false,
      "inputs": [
        {
          "name": "_to",
          "type": "address"
        },
        {
          "name": "_value",
          "type": "uint256"
        }
      ],
      "name": "transfer",
      "outputs": [
        {
          "name": "success",
          "type": "bool"
        }
      ],
      "payable": false,
      "stateMutability": "nonpayable",
      "type": "function"
    },
    {
      "constant": true,
      "inputs": [
        {
          "name": "_test",
          "type": "uint256"
        }
      ],
      "name": "testFunction",
      "outputs": [
        {
          "name": "success",
          "type": "bool"
        }
      ],
      "payable": false,
      "stateMutability": "pure",
      "type": "function"
    }
  ],
  "bytecode": "0x608060405234801561001057600080fd5b506040516020806107348339810180604052602081101561003057600080fd5b81019080805190602001909291905050508060008190555080600160003373ffffffffffffffffffffffffffffffffffffffff1673ffffffffffffffffffffffffffffffffffffffff16815260200190815260200160002081905550506106988061009c6000396000f3fe608060405234801561001057600080fd5b50600436106100885760003560e01c806370a082311161005b57806370a08231146101f757806376809ce31461024f57806395d89b4114610273578063a9059cbb146102f657610088565b806306fdde031461008d57806318160ddd146101105780631859ae671461012e578063350c530b146101b1575b600080fd5b61009561035c565b6040518080602001828103825283818151815260200191508051906020019080838360005b838110156100d55780820151818401526020810190506100ba565b50505050905090810190601f1680156101025780820380516001836020036101000a031916815260200191505b509250505060405180910390f35b610118610395565b6040518082815260200191505060405180910390f35b61013661039b565b6040518080602001828103825283818151815260200191508051906020019080838360005b8381101561017657808201518184015260208101905061015b565b50505050905090810190601f1680156101a35780820380516001836020036101000a031916815260200191505b509250505060405180910390f35b6101dd600480360360208110156101c757600080fd5b81019080803590602001909291905050506103d4565b604051808215151515815260200191505060405180910390f35b6102396004803603602081101561020d57600080fd5b81019080803573ffffffffffffffffffffffffffffffffffffffff169060200190929190505050610456565b6040518082815260200191505060405180910390f35b61025761046e565b604051808260ff1660ff16815260200191505060405180910390f35b61027b610473565b6040518080602001828103825283818151815260200191508051906020019080838360005b838110156102bb5780820151818401526020810190506102a0565b50505050905090810190601f1680156102e85780820380516001836020036101000a031916815260200191505b509250505060405180910390f35b6103426004803603604081101561030c57600080fd5b81019080803573ffffffffffffffffffffffffffffffffffffffff169060200190929190803590602001909291905050506104ac565b604051808215151515815260200191505060405180910390f35b6040518060400160405280600b81526020017f486f6b616765546f6b656e00000000000000000000000000000000000000000081525081565b60005481565b6040518060400160405280601081526020017f486f6b616765546f6b656e2076312e300000000000000000000000000000000081525081565b600061029a821461044d576040517f08c379a00000000000000000000000000000000000000000000000000000000081526004018080602001828103825260178152602001807f6974206973206e6f7420657175616c20746f202d36363600000000000000000081525060200191505060405180910390fd5b60019050919050565b60016020528060005260406000206000915090505481565b601281565b6040518060400160405280600681526020017f486f6b616765000000000000000000000000000000000000000000000000000081525081565b600081600160003373ffffffffffffffffffffffffffffffffffffffff1673ffffffffffffffffffffffffffffffffffffffff168152602001908152602001600020541015610563576040517f08c379a000000000000000000000000000000000000000000000000000000000815260040180806020018281038252601a8152602001807f596f7520646f6e74206861766520656e6f676820746f6b656e7300000000000081525060200191505060405180910390fd5b81600160003373ffffffffffffffffffffffffffffffffffffffff1673ffffffffffffffffffffffffffffffffffffffff1681526020019081526020016000206000828254039250508190555081600160008573ffffffffffffffffffffffffffffffffffffffff1673ffffffffffffffffffffffffffffffffffffffff168152602001908152602001600020600082825401925050819055508273ffffffffffffffffffffffffffffffffffffffff163373ffffffffffffffffffffffffffffffffffffffff167fddf252ad1be2c89b69c2b068fc378daa952ba7f163c4a11628f55a4df523b3ef846040518082815260200191505060405180910390a3600190509291505056fea165627a7a7230582076a401a52800a248f36838f832cd517226fefd80008620ed6d44a79dd7c6e2340029",
  "source": "pragma solidity ^0.5.8;\n\ncontract HokageToken{\n    //name\n    string public constant name = 'HokageToken';\n    //symbol\n    string public constant symbol = 'Hokage';\n    //decimal\n    uint8 public constant decimal = 18;\n    //standered < not erc20 token\n    string public constant standered = 'HokageToken v1.0';\n    //total supply of the coin\n    uint256 public totalSupply;\n    //balance of mapping\n    mapping(address => uint256) public balanceOf;\n\n    constructor(uint256 _initialSupply) public{\n        totalSupply = _initialSupply;\n        //allocating the balance to admin account\n        balanceOf[msg.sender] = _initialSupply;\n    }\n\n    //transfer function\n    function transfer(address _to, uint256 _value) public returns (bool success){\n\n        //Exection if not sufficauebt balance\n        require(balanceOf[msg.sender] >= _value,'You dont have enogh tokens');\n\n        //transfer\n        balanceOf[msg.sender] -= _value;\n        balanceOf[_to] += _value;\n\n        //Transfer Event\n        emit Transfer(msg.sender,_to,_value);\n\n        //Return boolean\n        return true;\n    }\n\n    function testFunction(uint256 _test) public pure returns(bool success){\n\n        require(_test == 666, 'it is not equal to -666');\n\n        return true;\n\n    }\n\n\n\n    //EVENTS\n    event Transfer(\n        address indexed _from,\n        address indexed _to,\n        uint256 _value\n    );\n\n}",
  "sourcePath": "/home/xgod666/Documents/ethereum/cryptoCoin/contracts/HokageToken.sol",
  "compiler": {
    "name": "solc",
    "version": "0.5.8+commit.23d335f2.Emscripten.clang"
  },
  "schemaVersion": "3.0.11",
  "updatedAt": "2019-06-25T14:34:32.898Z",
  "devdoc": {
    "methods": {}
  },
  "userdoc": {
    "methods": {}
  }
}